000800032930360   2025031120250311PROD00000001
100C0003563918002866123   0000160000003600310080442964129053677031050691596412932930360   32930360   59478008380271049358586    GIFTSHOP BY CESILE       Gianyar (KabIDN000000000000000000000000000100000000063020000   63020000    03            00360                      02100 000000000000   00000000000000000000   00000000D00000000000   00000000                                           
100C0003563918002866123   0000129000003600310134703613985777032031050692061398532930360   32930360   59127938467170404519404    GUARDIAN 6405 - ANTONIO BGianyar (KabIDN000000000000000000000000000100000000063020000   63020000    03            00360                      02100 000000000000   00000000000000000000   00000000D00000000000   00000000                                           
100C0003563918002866123   0000568000003600310134805616911692920031050692061691132930360   32930360   59127938467170404519404    GUARDIAN 6405 - ANTONIO BGianyar (KabIDN000000000000000000000000000100000000063020000   63020000    03            00360                      02100 000000000000   00000000000000000000   00000000D00000000000   00000000                                           
100C0003563918002866123   0000250500003600310134420606595936808031050692060659532930360   32930360   59127938467170404519404    GUARDIAN 6405 - ANTONIO BGianyar (KabIDN000000000000000000000000000100000000063020000   63020000    03            00360                      02100 000000000000   00000000000000000000   00000000D00000000000   00000000                                           
100C0003568891124064940   0000065864003600310081558991720708352031050691599172032930360   32930360   58148085090671596566491    CBTL - BANDARA HALIM JAKAJakarta TimuIDN000000000000000000000000000100000000003080000   03080000    03            00360                      02100 000000000000   00000000000000000000   00000000D00000000000   00000000                                           
100C0003568891124064940   0000117091003600310081242984163450320031050691598416332930360   32930360   58148085090671596566491    CBTL - BANDARA HALIM JAKAJakarta TimuIDN000000000000000000000000000100000000003080000   03080000    03            00360                      02100 000000000000   00000000000000000000   00000000D00000000000   00000000                                           
100E00060138201000149068310000251050003600309110346046819595778030950681804681932930360   32930360   54997978742870400441068    ALL FRESH                Jakarta SelaIDN000000000000000000000000000100000000001040000   01040000    03            00360                      05100 000000000000   00000000000000000000   00000000D00000000000   00000000                                           4AAC087CD79BC6DC05100250E0F8C8088004E0006C9D8C544D443845071E0103A02000040A0100000000006E7C2553                          003C7C00250309360                                          00000000251050003608000000000000002030022A000000333010101                000000                                    
100E00060138218006904367760000392600003600309153019813453226340031050682281345332930360   32930360   70117995553570403733899    TRAVEL JAKARTA           Jakarta BaraIDN000000000000000000000000000100000000001040000   01040000    03            00360                      05100 000000000000   00000000000000000000   00000000D00000000000   00000000                                           14EB0B39B9ACFC8B05100250E0F8C8088804E000FB7977644B44344A071E0103A0B000040A01000000000012E29F7D                          00037C00250309360                                          00000000392600003608000000000000002030022A000000333010101                000000                                    
100E0006210038319357045   0000121000003600310115046389708979579031050691838970832930360   32930360   58128030955371054435603    RESTAURANT GAMASOT       Bekasi (Kab)IDN000000000000000000000000000100000000026630410   26630410    03            00360                      05100 000000000000   00000000000000000000   00000000D00000000000   00000000                                           4405D483A59E79C505100150E0F8C8808004E000649F10764B44344807610103A0200001                                                041D1C00250310360                                          00000000121000003608000000000000042030022A000000333010101                000000                                    
100E00062122535000152564130001751000003600310013835215218      031050690821521832930360   32930360   47227978825370406841244    KCBJ TOURS               Badung (Kab)IDN000000000000000000000000000100000000001020000   01020000    03            00360                      05100 000000000000   00000000000000000000   00000000D00000000000   00000000                                           20B8A62FEF5F785F05100150E0F8C80880048000DB548BBF4D44384407010103A02000040A01000000000028DEBA99                          01417C00250310360                                          00000001751000003608000000000000002030022A000000333010101                000000                                    
100E00062122540000071857030000425000003600310051838597336      031050691259733632930360   32930360   59127831639170404616511    GUARDIAN 6509 BALI DEUS BBadung (Kab)IDN000000000000000000000000000100000000001020000   01020000    03            00360                      05100 000000000000   00000000000000000000   00000000D00000000000   00000000                                           3705F146F04B8EEB05100150E070C80080048000DCA1C4BF3232303407010103A02802010A0100000000005A241160                          01BB7C00250310360                                          00000000425000003608000000000000002030022A000000333010101                                                          
100E00062122616080088886370001565229003600309132928322217      030950682032221732930360   32930360   70117995553570403733899    TRAVEL JAKARTA           Jakarta BaraIDN000000000000000000000000000100000000001020000   01020000    03            00360                      05100 000000000000   00000000000000000000   00000000D00000000000   00000000                                           46DBD1E5431E89A605100150E0F8C80080048000F1FFF23D4B44344A07010103A02002010A0100000000006D0B5120                          00687C00250309360                                          00000001565229003608000000000000002030022A000000333010101                008C00                                    
100E00062122616150017245600001336300003600310135811647984      031050692064798432930360   32930360   58127828999271068203998    ATLICHNAYA3 BAR & RESTAURBadung (Kab)IDN000000000000000000000000000100000000001020000   01020000    03            00360                      05100 000000000000   00000000000000000000   00000000D00000000000   00000000                                           4E0E1FB80FAA777C05100250E070C800800480004DF577CB3532343307010103A02002010A010000000000621132FB                          002D3C00250310360                                          00000001336300003608000000000000002030022A000000333010101                                                          
100E00062122617050140876320000923230003600310121931436698      031050691943669832930360   32930360   58127912274771118632522    ACALA BISTRO             Badung (Kab)IDN000000000000000000000000000100000000001020000   01020000    03            00360                      05100 000000000000   00000000000000000000   00000000D00000000000   00000000                                           19171BAF3EC2500605100150E0F8C80000048000401115E34D44383507010103A02002010A010000000000C41881D2                          002D7C00250310360                                          00000000923230003608000000000000002030022A000000333010101                003000                                    
100E00062122636021328745950000312000003600310073734895903      031050691489590332930360   32930360   54997978678671101277690    BALI DIRECT STORE        Badung (Kab)IDN000000000000000000000000000100000000001020000   01020000    03            00360                      05100 000000000000   00000000000000000000   00000000D00000000000   00000000                                           A1B2F54D09CA5A0A05100150E0F8C8008004800058E991084D44384507010103A02002010A010000000000F35747BA                          017E7C00250310360                                          00000000312000003608000000000000002030022A000000333010101                000000                                    
100E00062122636021328745950000735000003600310094845187462      031050691618746232930360   32930360   72307973133671616466306    BEAM & BARE LASER STUDIO Badung (Kab)IDN000000000000000000000000000100000000001020000   01020000    03            00360                      05100 000000000000   00000000000000000000   00000000D00000000000   00000000                                           54BCEDB2E02D962E05100150E0F8C80080048000821C7B704B44385107010103A02002010A0100000000006C01B3E7                          017F7C00250310360                                          00000000735000003608000000000000002030022A000000333010101                000200                                    
100E00062144312409659583350000288388003600310112214352389      031050691835238932930360   32930360   54997978314170402261062    FRESTIVE CANGGU          Badung (Kab)IDN000000000000000000000000000100000000025130344   25130344    03            00360                      05100 000000000000   00000000000000000000   00000000D00000000000   00000000                                           0E79FEF5E48FA24605100250E0F8C80080048000495A7CFC4D44384507010103A0200201                                                01087C00250310360                                          00000000288388003608000000000000002030022A000000333010101                000000                                    
100E00062144351004287283350000632500003600310000116101626      031050690710162632930360   32930360   79977925484571572657494    REVIVE AND PILATES UMALASBadung (Kab)IDN000000000000000000000000000100000000025130344   25130344    03            00360                      05100 000000000000   00000000000000000000   00000000D00000000000   00000000                                           854667C5E61C766605100550E070C800800480005EAF65653531303207010103A0200201                                                00407C00250310360                                          00000000632500003608000000000000002030022A000000333010101                                                          
100E0006214667100102446   0000288000003600310084754061001      031050691506100132930360   32930360   54117926010971140977866    COCO GOURMET DISCOVERY SHBadung (Kab)IDN000000000000000000000000000100000000001050001   01050001    03            00360                      05100 000000000000   00000000000000000000   00000000D00000000000   00000000                                           A263F782A2DCC52605100250E0F8C8088804E0002C2D9F634B44384D07010103A0B000040A0100000000008EBBB6A5                          000A7C00250310360                                          00000000288000003608000000000000002030022A000000333010101                000000                                    
100E0006214830566021472   0000699565003600309110810053781      030950681805378132930360   32930360   70117995553570403733899    TRAVEL JAKARTA           Jakarta BaraIDN000000000000000000000000000100000000003080000   03080000    03            00360                      05100 000000000000   00000000000000000000   00000000D00000000000   00000000                                           2CA84A0F0D28930F05100050E0F8C8088004E000AE6B7DB34B44344A07010103A02000040A0100000000008A83BABD                          00217C00250309360                                          00000000699565003608000000000000042030022A000000333010101                008C00                                    
100E0006214830584905466   0000315000003600310050511572734      031050691257273432930360   32930360   58128126853671087558582    SINGLE FIN               Badung (Kab)IDN000000000000000000000000000100000000003080000   03080000    03            00360                      05100 000000000000   00000000000000000000   00000000D00000000000   00000000                                           F9FAEDBCEDDBAC9305100050E0F8C8088004E00079A228FF4D44384507010103A02004040A0100000000002E8A088C                          000F7C00250310360                                          00000000315000003608000000000000042030022A000000333010101                000200                                    
100E0006214830584905466   0000255000003600310053511627293      031050691262729332930360   32930360   58128126853671087558582    SINGLE FIN               Badung (Kab)IDN000000000000000000000000000100000000003080000   03080000    03            00360                      05100 000000000000   00000000000000000000   00000000D00000000000   00000000                                           09A4CBE0B1CA8B7805100050E0F8C8088004E0004923D6464D44384507010103A02000040A01000000000068F2B756                          00107C00250310360                                          00000000255000003608000000000000042030022A000000333010101                000200                                    
100E0006214830584905466   0000055000003600310063042732760      031050691373276032930360   32930360   58128041250371087558582    SINGLE FIN               Badung (Kab)IDN000000000000000000000000000100000000003080000   03080000    03            00360                      05100 000000000000   00000000000000000000   00000000D00000000000   00000000                                           C0A379ECAF4DA6CE05100050E0F8C8088004E000F5AA037E4D44384507010103A02000040A010000000000882A468D                          00127C00250310360                                          00000000055000003608000000000000042030022A000000333010101                000100                                    
100E0006214830584905466   0001020000003600310102838266940      031050691726694032930360   32930360   72987926013871143954226    SPRING SPA               Badung (Kab)IDN000000000000000000000000000100000000003080000   03080000    03            00360                      05100 000000000000   00000000000000000000   00000000D00000000000   00000000                                           93D443E17571196205100050E0F8C8088004E000C73ED32F4D44383607010103A02000040A0100000000002F08786F                          00137C00250310360                                          00000001020000003608000000000000042030022A000000333010101                000200                                    
100E0006214830894778389   0000181000003600310061448701918      031050691370191832930360   32930360   58147877926571492691504    KOPI KENANGAN MALL OF INDJakarta UtarIDN000000000000000000000000000100000000003080000   03080000    03            00360                      05100 000000000000   00000000000000000000   00000000D00000000000   00000000                                           462C01A8433079F505100050E070C8008004E00076A5827D3030363807010103A02002010A010000000000A26436C5                          00557C00250310360                                          00000000181000003608000000000000042030022A000000333010101                                                          
100E0006214832767980597   0000498960003600310070024798618      031050691479861832930360   32930360   58127978320770405091145    EXCELSO-GMB              Bekasi (KotaIDN000000000000000000000000000100000000003080000   03080000    03            00360                      05100 000000000000   00000000000000000000   00000000D00000000000   00000000                                           9E82C79BE526599D05100050E0F8C8080004E00060DC09A24D44384407010103A02000040A010000000000B8722E20                          00867C00250310360                                          00000000498960003608000000000000042030022A000000333010101                003000                                    
100E0006214833040770953   0000302500003600309073631535589      030950681453558932930360   32930360   70117931747170415321534    HOTEL ASTON PLUIT        Jakarta UtarIDN000000000000000000000000000100000000003080000   03080000    03            00360                      05100 000000000000   00000000000000000000   00000000D00000000000   00000000                                           A503DDF2A67CAF3F05100050E070C8008004E000F012CF9C3030363407010103A02002010A01000000000049B87A57                          00057C00250309360                                          00000000302500003608000000000000042030022A000000333010101                                                          
100E0006214833040770953   0000175450003600310122652448785      031050691944878532930360   32930360   70117931747170415321534    HOTEL ASTON PLUIT        Jakarta UtarIDN000000000000000000000000000100000000003080000   03080000    03            00360                      05100 000000000000   00000000000000000000   00000000D00000000000   00000000                                           5BD96F664E02188505100050E070C8008004E0008CF6A4A93030363407010103A02002010A0100000000006E225FED                          00067C00250310360                                          00000000175450003608000000000000042030022A000000333010101                                                          
100E0006214835240168938   0000250000003600310052620611248      031050691261124832930360   32930360   41127801165771459871226    KCIC STASIUN TEGALLUAR   Bandung (KabIDN000000000000000000000000000100000000003080000   03080000    03            00360                      05100 000000000000   00000000000000000000   00000000D00000000000   00000000                                           76538DD4EA513CDC05100050E070C8008004E00012B1AE893532373107010103A02002010A010000000000A1730A0D                          00C37C00250310360                                          00000000250000003608000000000000042030022A000000333010101                                                          
100E0006214837749230441   0001102310003600310102004250721      031050691725072132930360   32930360   70118042487770406895774    ALILA                    Gianyar (KabIDN000000000000000000000000000100000000003080000   03080000    03            00360                      05100 000000000000   00000000000000000000   00000000D00000000000   00000000                                           22FEE970BED7FAE505100050E0F8C8080004E0001507B50A4D44384507010103A0A800040A010000000000AB71D931                          000A7C00250310360                                          00000001102310003608000000000000042030022A000000333010101                003000                                    
100E0006214838667002226   0000098000003600310062529722385      031050691372238532930360   32930360   58127978367971004502538    BASO A FUNG              Badung (Kab)IDN000000000000000000000000000100000000003080000   03080000    03            00360                      05100 000000000000   00000000000000000000   00000000D00000000000   00000000                                           5042C8FF34FCA65E05100050E0F8C8088804E000DBE9E2B04B44384D07010103A0B000040A010000000000E4CF8232                          00027C00250310360                                          00000000098000003608000000000000042030022A000000333010101                000200                                    
100E0006214851820803489   0000324500003600310104407294656      031050691729465632930360   32930360   59127470571370404739589    GUARDIAN 6540 CIREBON SUPCirebon (KotIDN000000000000000000000000000100000000003080000   03080000    03            00360                      05100 000000000000   00000000000000000000   00000000D00000000000   00000000                                           8CDDB1F37B3DCE5605100050E070C8008004E00017AD217A3239323207010103A02002010A010000000000C31188EC                          000A7C00250310360                                          00000000324500003608000000000000042030022A000000333010101                                                          
100E0006214852111466176   0000279000003600310112319353714      031050691835371432930360   32930360   57128042077271633090425    NITORI RETAIL INDONESIA  Jakarta BaraIDN000000000000000000000000000100000000003080000   03080000    03            00360                      05100 000000000000   00000000000000000000   00000000D00000000000   00000000                                           C3F8CF6E8A1CCE0805100050E0F8C8008004E0007C97E3044D44343107010103A02002010A01000000000043A90E26                          00497C00250310360                                          00000000279000003608000000000000042030022A000000333010101                008C00                                    
100E0006214852122540001   0001365320003600310122945453421      031050691945342132930360   32930360   58127918776671098283220    NUSA BY SUKA             Badung (Kab)IDN000000000000000000000000000100000000003080000   03080000    03            00360                      05100 000000000000   00000000000000000000   00000000D00000000000   00000000                                           F99974D4A4DB187D05100050E0F8C8008004E000694AA8D24B44384C07010103A0A002010A010000000000778FF268                          00687C00250310360                                          00000001365320003608000000000000042030022A000000333010101                000200                                    
100E0006214853040270416   0000181500003600309233235078054      031050690607805432930360   32930360   70118118470970419179391    LOVINA BEACH CLUB  & RESOBuleleng (KaIDN000000000000000000000000000100000000003080000   03080000    03            00360                      05100 000000000000   00000000000000000000   00000000D00000000000   00000000                                           81F81B37B12C50FC05100050E070C8008004E000A4110A1E3533333407010103A02002010A0100000000009234BADF                          000A7C00250310360                                          00000000181500003608000000000000042030022A000000333010101                                                          
100E0006214880410127892   0000339250003600310071951851408      031050691485140832930360   32930360   58128035952571674221062    BALAGAN RESTO & LOUNGE   Badung (Kab)IDN000000000000000000000000000100000000001050001   01050001    03            00360                      05100 000000000000   00000000000000000000   00000000D00000000000   00000000                                           2BCFE2EF25DDB86505100150E070C8008004E00046EED8C33532343007010103A0A002010A010000000000FCE2C078                          00227C00250310360                                          00000000339250003608000000000000002030022A000000333010101                                                          
100E0006214881831082666   0001530000003600310045831560433      031050691156043332930360   32930360   56518094917470405015521    PLAZA BALI DUTY & TAX FRETangerang (KIDN000000000000000000000000000100000000001050001   01050001    03            00360                      05100 000000000000   00000000000000000000   00000000D00000000000   00000000                                           45762BA94A7CD6BA05100250E070C8008004E000091943F53030363507010103A02002010A010000000000038D7996                          00987C00250310360                                          00000001530000003608000000000000002030022A000000333010101                                                          
100E0006214993761603765   0000466400003600310122252442298      031050691944229832930360   32930360   58127484005771001612444    THE CHILL PENIDA         Klungkung (KIDN000000000000000000000000000100000000001050001   01050001    03            00360                      05100 000000000000   00000000000000000000   00000000D00000000000   00000000                                           79396DA593E9781305100150E070C8008004E0002493B8333239343107010103A02002010A01000000000054B8E9B6                          000F7C00250310360                                          00000000466400003608000000000000002030022A000000333010101                                                          
100E00062153403015156378730000165000003600310041653483404      031050691148340432930360   32930360   58127487664870403208509    BAR & CAFE               Denpasar (KoIDN000000000000000000000000000100000000001050001   01050001    03            00360                      05100 000000000000   00000000000000000000   00000000D00000000000   00000000                                           803205F5830C827405100150E070C8008004E00035B542013239373907010103A02002010A01000000000032D878D4                          00127C00250310360                                          00000000165000003608000000000000002030022A000000333010101                                                          
100E00062155906100018403210000980600003600310145444856202      031050692185620232930360   32930360   54117916644870404354047    COCO MART MUDING         Badung (Kab)IDN000000000000000000000000000100000000001020000   01020000    03            00360                      05100 000000000000   00000000000000000000   00000000D00000000000   00000000                                           07B210A9DFCD379705100150E0F8C800800480003443181E4D44383607010103A02002010A010000000000343DE534                          00677C00250310360                                          00000000980600003608000000000000002030022A000000333010101                000000                                    
100E00062156880000114558690006000000003600310095108192220642909031050691619222032930360   32930360   70118053620370412741806    FINN'S BEACH CLUB        Badung (Kab)IDN000000000000000000000000000100000000001040000   01040000    03            00360                      05100 000000000000   00000000000000000000   00000000D00000000000   00000000                                           B97E83894711738605100150E070C8008004E000C8B5A9843530323707260103A02002010A010000000000CDE65C7B                          00267C00250310360                                          00000006000000003608000000000000002030022A000000333010101                                                          
100E00062166005000015149090000056650003600310042051490832800752031050691149083232930360   32930360   58127995692571161473981    WARUNG SIKA              Badung (Kab)IDN000000000000000000000000000100000000001040000   01040000    03            00360                      05100 000000000000   00000000000000000000   00000000D00000000000   00000000                                           9FE63FC02481555205100150E0F8C8008004E000845533E64B44344807290103A02002010A0100000000009F9A635F                          05247C00250310360                                          00000000056650003608000000000000002030022A000000333010101                000200                                    
100E00062166075000041104760000417850003600310071332835163823144031050691483516332930360   32930360   59127797739671182617881    KIMIA FARMA DANAU TAMBLINDenpasar (KoIDN000000000000000000000000000100000000001040000   01040000    03            00360                      05100 000000000000   00000000000000000000   00000000D00000000000   00000000                                           5B730C040906244105100150E070C8008004E000C2A706493533333507290103A02002010A01000000000090B4C13B                          005A7C00250310360                                          00000000417850003608000000000000002030022A000000333010101                                                          
100E00062166134000049597940000533000003600310120902419396237827031050691941939632930360   32930360   54117466573771140977866    COCO GOURMET DISCOVERY SHBadung (Kab)IDN000000000000000000000000000100000000001040000   01040000    03            00360                      05100 000000000000   00000000000000000000   00000000D00000000000   00000000                                           21DEFD2E6970396C05100150E070C8008004E0001DE012EB32393432072A0103A02002010A0100000000005819ED79                          00527C00250310360                                          00000000533000003608000000000000002030022A000000333010101                                                          
100E00062166914000015179390000290400003600310124519480941225118031050691948094132930360   32930360   70117916346270419032997    KUTA PARADISO HOTEL      Badung (Kab)IDN000000000000000000000000000100000000001040000   01040000    03            00360                      05100 000000000000   00000000000000000000   00000000D00000000000   00000000                                           0E7D0DC537C642C505100150E0F8C8088004E0009E9023C34D44383507300103A02000040A010000000000F3B78AD0                          00447C00250310360                                          00000000290400003608000000000000002030022A000000333010101                000200                                    
100E00062166970000410265390000125000003600310104100289181030328031050691728918132930360   32930360   58128017811171627994207    LE PETIT JEMMA 1         Badung (Kab)IDN000000000000000000000000000100000000001040000   01040000    03            00360                      05100 000000000000   00000000000000000000   00000000D00000000000   00000000                                           EAD5B930666428EA05100150E0F8C8088004E000AA2414094D44384407300103A02000040A010000000000E35FF024                          00427C00250310360                                          00000000125000003608000000000000002030022A000000333010101                000200                                    
100E0006216910304057745   0001798000003600310074608916771      031050691491677132930360   32930360   56318018129571658174031    UNDER ARMOUR PIK AVENUE  Jakarta UtarIDN000000000000000000000000000100000000003050000   03050000    03            00360                      05100 000000000000   00000000000000000000   00000000D00000000000   00000000                                           3E56A7175A05EB5305100050E070C8008004E000CB09AD703239343407010103A02002010A010000000000B197E893                          00CD7C00250310360                                          00000001798000003608000000000000002030022A000000333010101                                                          
100E00062170000100303220700000365600003600310094927188887      031050691618888732930360   32930360   54997993643871635208694    BORMA DANGDEUR           Bandung (KabIDN000000000000000000000000000100000000001050001   01050001    03            00360                      05100 000000000000   00000000000000000000   00000000D00000000000   00000000                                           A07A8DC8AC5B688C05100250E0F8C8088004E00052B99F794D44384507010103A02000040A0100000000004EFC43D8                          00AB7C00250310360                                          00000000365600003608000000000000002030022A000000333010101                000200                                    
100E00062170000100589784310012411000003600310025346331315      031050690933131532930360   32930360   70117978521671562405143    MANHATTAN HOTEL          Jakarta SelaIDN000000000000000000000000000100000000001050001   01050001    03            00360                      05100 000000000000   00000000000000000000   00000000D00000000000   00000000                                           D0FDEA8B7AC8892605100250E0F8C8088004E0003F59A9F24D44384507010103A02000040A010000000000C2CF61DF                          00137C00250310360                                          00000012411000003608000000000000002030022A000000333010101                008C00                                    
100E00062170011800808802580000140000003600310120048406116      031050691940611632930360   32930360   58128124958971002086787    PENNY LANE               Badung (Kab)IDN000000000000000000000000000100000000001050001   01050001    03            00360                      05100 000000000000   00000000000000000000   00000000D00000000000   00000000                                           F63F6F8476CC130E05100150E0F8C8088004E000D2AEA4F04D44383507010103A02000040A01000000000044F7BF61                          00857C00250310360                                          00000000140000003608000000000000002030022A000000333010101                020000                                    
100E00062170019300040943310001871800003600310123831468796      031050691946879632930360   32930360   54117466573771140977866    COCO GOURMET DISCOVERY SHBadung (Kab)IDN000000000000000000000000000100000000001050001   01050001    03            00360                      05100 000000000000   00000000000000000000   00000000D00000000000   00000000                                           E1ACFF2DCEA826AD05100250E070C8008004E000B3EE22F13239343207010103A02002010A0100000000004EB948C3                          00247C00250310360                                          00000001871800003608000000000000002030022A000000333010101                                                          
100E00062170020001022392760000545900003600310040408459321      031050691145932132930360   32930360   70117442347271118042804    PURI BALI BUNGALOWS      Buleleng (KaIDN000000000000000000000000000100000000001050001   01050001    03            00360                      05100 000000000000   00000000000000000000   00000000D00000000000   00000000                                           6AD25254DB787F2F05100150E070C8008004E000B241E6E83237383807010103A02002010A010000000000A0355789                          00067C00250310360                                          00000000545900003608000000000000002030022A000000333010101                                                          
100E00062170028300050909900000158400003600310111318341340      031050691834134032930360   32930360   58128119720171023009600    PHO BA BA                Jakarta SelaIDN000000000000000000000000000100000000001050001   01050001    03            00360                      05100 000000000000   00000000000000000000   00000000D00000000000   00000000                                           58DF26CA3D6EEE1005100150E0F8C8008004E0008464F4654D44343207010103A02002010A01000000000013DA884A                          01157C00250310360                                          00000000158400003608000000000000002030022A000000333010101                000200                                    
100E00062170029201726282820000093500003600310115027389167      031050691838916732930360   32930360   58127989310271603026233    FRIED CHICKEN MASTER KUNIJakarta SelaIDN000000000000000000000000000100000000001050001   01050001    03            00360                      05100 000000000000   00000000000000000000   00000000D00000000000   00000000                                           CF8F026A49178E3D05100150E070C8008004E000BB0D0B3F3531303107010103A02002010A0100000000003C2D6EB9                          00827C00250310360                                          00000000093500003608000000000000002030022A000000333010101                                                          
100E00062170033201101514980000188000003600310145453857105      031050692185710532930360   32930360   58127995604470401271339    YAM-YAM RESTO            Jepara (Kab)IDN000000000000000000000000000100000000001050001   01050001    03            00360                      05100 000000000000   00000000000000000000   00000000D00000000000   00000000                                           50DFCF92BEDB7FC305100150E0F8C8088004E0002102EBCA4D44384507010103A02000040A010000000000DCE85871                          00487C00250310360                                          00000000188000003608000000000000002030022A000000333010101                000200                                    
100E00062170039800034431690000275000003600310103316275615      031050691727561532930360   32930360   58128017869171628038964    BURGER KING              Badung (Kab)IDN000000000000000000000000000100000000001050001   01050001    03            00360                      05100 000000000000   00000000000000000000   00000000D00000000000   00000000                                           7C11701CFDB0211A05100150E0F8C8088004E00096F218914D44384507010103A02004040A010000000000A2A585DA                          003E7C00250310360                                          00000000275000003608000000000000002030022A000000333010101                008C00                                    
100E00062170045500055368530000102300003600309190014965024      031050690296502432930360   32930360   58128015357271572379853    FONGSHENG HONGKONG BAKMIEJakarta UtarIDN000000000000000000000000000100000000001050001   01050001    03            00360                      05100 000000000000   00000000000000000000   00000000D00000000000   00000000                                           6F0CAF55057EE23E05100150E0F8C8008004E0007C0E49854D44343207010103A02002010A010000000000B96ED5A2                          01187C00250310360                                          00000000102300003608000000000000002030022A000000333010101                000000                                    
100E00062170072000724243050000217000003600310024035309514      031050690930951432930360   32930360   58128030604871520925324    RAVINO & BUBUR SAPO BUN OTangerang (KIDN000000000000000000000000000100000000001050001   01050001    03            00360                      05100 000000000000   00000000000000000000   00000000D00000000000   00000000                                           41FCA9214F28C1A405100150E0F8C8080004E0007752D3D04B44344A07010103A02000040A010000000000E044E8AD                          00377C00250310360                                          00000000217000003608000000000000002030022A000000333010101                003000                                    
100E00062172310010042743800000030000003600310053728631455      031050691263145532930360   32930360   54627912292171164008885    ROTI O BANDARA BOARDING LTangerang (KIDN000000000000000000000000000100000000001020000   01020000    03            00360                      05100 000000000000   00000000000000000000   00000000D00000000000   00000000                                           F5929B56459A067805100150E0F8C8008004800010E61DDD4B44385107010103A02002010A010000000000D4719B2D                          002B7C00250310360                                          00000000030000003608000000000000002030022A000000333010101                000000                                    
100E00062172310010042743800000048000003600310053352624798      031050691262479832930360   32930360   54627916916971197041995    BEARD PAPA T3 GATE 14 EX Tangerang (KIDN000000000000000000000000000100000000001020000   01020000    03            00360                      05100 000000000000   00000000000000000000   00000000D00000000000   00000000                                           064B15E6F52E0D2505100150E0F8C80080048000B698F7F54B44384D07010103A02002010A01000000000090DF09D2                          002A7C00250310360                                          00000000048000003608000000000000002030022A000000333010101                000000                                    
100E00062172310010042743800000518000003600310052859616178      031050691261617832930360   32930360   56517984357271064436318    SR POLO EX IPORT T3 JAKARTangerang (KIDN000000000000000000000000000100000000001020000   01020000    03            00360                      05100 000000000000   00000000000000000000   00000000D00000000000   00000000                                           B564B12C0274B6FD05100150E0F8C80080048000DE5FB1FA4D44384507010103A02002010A010000000000FCF53103                          00297C00250310360                                          00000000518000003608000000000000002030022A000000333010101                008C00                                    
100E00062175608000180296440000205700003600309164251913088977802031050682391308832930360   32930360   70117617326171284888664    ROOM SERVICE             Tangerang (KIDN000000000000000000000000000100000000001040000   01040000    03            00360                      05100 000000000000   00000000000000000000   00000000D00000000000   00000000                                           E0D2CE61B37D755805100150E070C8008004E0005E14081932393433070B0103A02002010A0100000000007694ECE4                          001A7C00250309360                                          00000000205700003608000000000000002030022A000000333010101                                                          
100E00062175662000161552810000005100003600310060504682858342786031050691368285832930360   32930360   58128066863671703140906    GL-BLOK M JAKARTA        Jakarta SelaIDN000000000000000000000000000100000000001040000   01040000    03            00360                      05100 000000000000   00000000000000000000   00000000D00000000000   00000000                                           7FC392887CD71A2D05100150E070C8008004E000881F8BC732383235070B0103A02002010A0100000000005B0F53C6                          00AC7C00250310360                                          00000000005100003608000000000000002030022A000000333010101                                                          
100E00062175662000161552810000032000003600310055443663015843260031050691266301532930360   32930360   58128066863671703140906    GL-BLOK M JAKARTA        Jakarta SelaIDN000000000000000000000000000100000000001040000   01040000    03            00360                      05100 000000000000   00000000000000000000   00000000D00000000000   00000000                                           9BD7D088F723049805100150E070C8008004E0007650387932383235070B0103A02002010A0100000000003F96F2C0                          00AB7C00250310360                                          00000000032000003608000000000000002030022A000000333010101                                                          
100E00062175801000049666020000337160003600310084818061890378439031050691506189032930360   32930360   54998052323071689719200    GREEN GROCERY            Lombok UtaraIDN000000000000000000000000000100000000001040000   01040000    03            00360                      05100 000000000000   00000000000000000000   00000000D00000000000   00000000                                           9C8076A728A16BB905100250E070C8008004E0000AFC51E935323830070D0103A02002010A0100000000004D81A4A5                          03557C00250310360                                          00000000337160003608000000000000002030022A000000333010101                                                          
100E0006217680310183178   0000114000003600310120219408715286497031050691940871532930360   32930360   58147963105371006580336    MARUGAME KITCHEN TAMAN ANJakarta BaraIDN000000000000000000000000000100000000003020000   03020000    03            00360                      05100 000000000000   00000000000000000000   00000000D00000000000   00000000                                           47D8FFE1DC3139B305100050E070C8008004E000BC6A36FE3232303507010103A02002010A010000000000708E6CCF                          00637C00250310360                                          00000000114000003608000000000000002030022A000000333010101                                                          
100E0006217681401721850   0025548000003600310111650345937152991031050691834593732930360   32930360   48127963030670404633241    SAMSUNG ERF LOTTE SHOPP AJakarta SelaIDN000000000000000000000000000100000000003020000   03020000    03            00360                      05100 000000000000   00000000000000000000   00000000D00000000000   00000000                                           ACDD14236428604105100050E070C8008004E000FC5B22063532363907010103A0A802010A0100000000006F50A182                          009A7C00250310360                                          00000025548000003608000000000000002030022A000000333010101                                                          
100E0006217711109492312   0000070000003600310064602763729361329031050691376372932930360   32930360   58147990744871023996679    MARUGAME BANDARA TERMINALTangerang (KIDN000000000000000000000000000100000000003020000   03020000    03            00360                      05100 000000000000   00000000000000000000   00000000D00000000000   00000000                                           65E41751BC569FAF05100050E070C8008004E00028A6C5F13532363707010103A02002010A010000000000236C2555                          00587C00250310360                                          00000000070000003608000000000000002030022A000000333010101                                                          
100E0006217770010870966   0000200000003600310032230381407      031050691038140732930360   32930360   79997978817570412749115    MANDALA SUCI WENARA WANA Gianyar (KabIDN000000000000000000000000000100000000064243010   64243010    03            00360                      05100 000000000000   00000000000000000000   00000000D00000000000   00000000                                           2E3FFEECDAE6898005100050E0F8C8008004E0001141B1624D44384607020103A0A002010A010000000000AAFB8D61                          00597C00250310360                                          00000000200000003608000000000000042030022A000000333010101                000200                                    
100E00062178508000194572720000150000003600310111057338206328849031050691833820632930360   32930360   48127914535471563844696    EVA CELL                 Badung (Kab)IDN000000000000000000000000000100000000001040000   01040000    03            00360                      05100 000000000000   00000000000000000000   00000000D00000000000   00000000                                           03B8CB160D50B7BD05100150E070C8008004E0002ACA986D35333935070F0103A02002010A010000000000C4FFCEC1                          00627C00250310360                                          00000000150000003608000000000000002030022A000000333010101                                                          
100E00062178527000214052360000101915003600310122324443138137427031050691944313832930360   32930360   70118113400970412741806    FINN'S BEACH CLUB        Badung (Kab)IDN000000000000000000000000000100000000001040000   01040000    03            00360                      05100 000000000000   00000000000000000000   00000000D00000000000   00000000                                           514FFF4D899D2B0E05100150E070C8008004E0003843B95A35323835070F0103A02002010A01000000000073A01E07                          00AC7C00250310360                                          00000000101915003608000000000000002030022A000000333010101                                                          
100E00062178527000214052360000179850003600310133524584974849440031050692058497432930360   32930360   70118059725670412741806    FINN'S BEACH CLUB        Badung (Kab)IDN000000000000000000000000000100000000001040000   01040000    03            00360                      05100 000000000000   00000000000000000000   00000000D00000000000   00000000                                           5144E9EEE04A887B05100150E070C8008004E0008C8A889132373035070F0103A02002010A01000000000080ACF2C7                          00AD7C00250310360                                          00000000179850003608000000000000002030022A000000333010101                                                          
100E00062178561000399073050000350000003600310121340426975200109031050691942697532930360   32930360   56117611371871278926874    NAK BALI SEMINYAK        Badung (Kab)IDN000000000000000000000000000100000000001040000   01040000    03            00360                      05100 000000000000   00000000000000000000   00000000D00000000000   00000000                                           BEC9353A63561C8405100250E070C8008004E000FF139C1435313031070F0103A02002010A010000000000F4B2C33E                          00097C00250310360                                          00000000350000003608000000000000002030022A000000333010101                                                          
100E00062178561001136150970000151000003600310064446761057193040031050691376105732930360   32930360   58128014505771428193128    AGUNG BEACH CLUB         Klungkung (KIDN000000000000000000000000000100000000001040000   01040000    03            00360                      05100 000000000000   00000000000000000000   00000000D00000000000   00000000                                           51889D6E9F6025B605100150E0F8C8088004E000E9D715E34B443454070F0103A02000040A010000000000EE30DFA6                          00777C00250310360                                          00000000151000003608000000000000002030022A000000333010101                000000                                    
100E00062178562000405651080000740500003600310075911948539802250031050691494853932930360   32930360   58128124958971002086787    PENNY LANE               Badung (Kab)IDN000000000000000000000000000100000000001040000   01040000    03            00360                      05100 000000000000   00000000000000000000   00000000D00000000000   00000000                                           38CEA37A975F3EEE05100150E0F8C8088004E000FB2464AC4D443835070F0103A02000040A01000000000065E197F6                          00E07C00250310360                                          00000000740500003608000000000000002030022A000000333010101                020000                                    
100E00062178662000276307090000159500003600310080658969911303987031050691596991132930360   32930360   58128010693571651342706    NOORD CAFE               Buleleng (KaIDN000000000000000000000000000100000000001040000   01040000    03            00360                      05100 000000000000   00000000000000000000   00000000D00000000000   00000000                                           714A6E3B6369E8F905100150E070C8008004E000FB28B8A53534303407100103A02002010A0100000000007179CA84                          000B7C00250310360                                          00000000159500003608000000000000002030022A000000333010101                                                          
100E00062178681000010825880000416500003600310134720614740820610031050692061474032930360   32930360   54117916344571007445888    POPULAR PELIATAN         Gianyar (KabIDN000000000000000000000000000100000000001040000   01040000    03            00360                      05100 000000000000   00000000000000000000   00000000D00000000000   00000000                                           8478540A12F2C3F105100250E0F8C8088004E000183543564D44383507100103A02000040A010000000000ED70F7AE                          000E7C00250310360                                          00000000416500003608000000000000002030022A000000333010101                000200                                    
100E00062178805000002490010000104000003600310082244007035372051031050691500703532930360   32930360   58128017935271628417313    MADE'S WARUNG INTER      Badung (Kab)IDN000000000000000000000000000100000000001040000   01040000    03            00360                      05100 000000000000   00000000000000000000   00000000D00000000000   00000000                                           51BE7FEE50F94D3B05100250E0F8C8088004E00026FD24954D44384507120103A02000040A01000000000030EDA610                          00567C00250310360                                          00000000104000003608000000000000002030022A000000333010101                000200                                    
100E00062178931000033587460000035000003600310063440740651340962031050691374065132930360   32930360   58128081753271538849855    ACME CANGGU              Badung (Kab)IDN000000000000000000000000000100000000001040000   01040000    03            00360                      05100 000000000000   00000000000000000000   00000000D00000000000   00000000                                           611632F2C8C10C9505100150E070C8008004E00059043FEF3030363507130103A02002010A010000000000427D7C23                          00397C00250310360                                          00000000035000003608000000000000002030022A000000333010101                                                          
100E00062178931000033587460000060000003600310052905616353689460031050691261635332930360   32930360   58128081753271538849855    ACME CANGGU              Badung (Kab)IDN000000000000000000000000000100000000001040000   01040000    03            00360                      05100 000000000000   00000000000000000000   00000000D00000000000   00000000                                           6FC222F9328C6B2105100150E070C8008004E0004354ECD93030363507130103A02002010A0100000000003B4D1582                          00387C00250310360                                          00000000060000003608000000000000002030022A000000333010101                                                          
100E00062178980000057898380000413930003600310125737504878410224031050691950487832930360   32930360   58147919544571567617402    KIMUKATSU AEON MALL DELTABekasi (Kab)IDN000000000000000000000000000100000000001040000   01040000    03            00360                      05100 000000000000   00000000000000000000   00000000D00000000000   00000000                                           7B4CA938FD0A5A0705100150E070C8008004E00053A6A0723238303307130103A02002010A01000000000009F7EACC                          00CB7C00250310360                                          00000000413930003608000000000000002030022A000000333010101                                                          
100E00062179006000136945360000299000003600310115317393628078648031050691839362832930360   32930360   56517912316671494932891    KRISNA OLEH OLEH BALI    Badung (Kab)IDN000000000000000000000000000100000000001040000   01040000    03            00360                      05100 000000000000   00000000000000000000   00000000D00000000000   00000000                                           3F6AFC9161581BCC05100150E0F8C8008004E0009E3AE11A4B44385107140103A02002010A0100000000006C66A53F                          00657C00250310360                                          00000000299000003608000000000000002030022A000000333010101                000000                                    
100E00062179032000101333930001615000003600310031008359984212864031050691035998432930360   32930360   54997978808871221197210    SATRIA AGROWISATA        Gianyar (KabIDN000000000000000000000000000100000000001040000   01040000    03            00360                      05100 000000000000   00000000000000000000   00000000D00000000000   00000000                                           1EEC132761004BC505100150E0F8C8088004E000BD53F5FB4D44384607140103A02000040A010000000000440FF8DE                          00067C00250310360                                          00000001615000003608000000000000002030022A000000333010101                000200                                    
100E00062179064000292327830000950000003600309221712043122882054031050690504312232930360   32930360   56518094917670405015521    PLAZA BALI DUTY & TAX FRETangerang (KIDN000000000000000000000000000100000000001040000   01040000    03            00360                      05100 000000000000   00000000000000000000   00000000D00000000000   00000000                                           AB2C4095DD225AF105100150E070C8008004E000620ADB103030363907140103A02002010A010000000000ED542873                          004C7C00250310360                                          00000000950000003608000000000000002030022A000000333010101                                                          
100E0006217920410295294   0000100100003600310115342394235      031050691839423532930360   32930360   54628066545671702840063    VILLIA BAKERY            Berau (Kab) IDN000000000000000000000000000100000000003100000   03100000    03            00360                      05100 000000000000   00000000000000000000   00000000D00000000000   00000000                                           0F9462BE55C6D5C805100150E070C8008004E000680316FA3237353707010103A02002010A01000000000056981DF0                          00877C00250310360                                          00000000100100003608000000000000002030022A000000333010101                                                          
100E0006217921678100440   0000060000003600310094028170516      031050691617051632930360   32930360   58128018020671628369010    REVOLVER INTER           Badung (Kab)IDN000000000000000000000000000100000000003100000   03100000    03            00360                      05100 000000000000   00000000000000000000   00000000D00000000000   00000000                                           C57E72417DB0C3BF05100150E0F8C8088804E000BE594BA64D44384407010103A0B000040A010000000000FDA08C2C                          00037C00250310360                                          00000000060000003608000000000000002030022A000000333010101                000200                                    
100E0006221550345893253   0000185000003600310114501381299007071031050691838129932930360   32930360   80997923509871570984120    SKIN+ AEON SENTUL CITY   Bogor (Kab) IDN000000000000000000000000000100000000005105840   05105840    03            00360                      05100 000000000000   00000000000000000000   00000000D00000000000   00000000                                           0DBA8692747002BD05100250E070C8008004E0009854F5F73533323007010103A02002010A01000000000058229E80                          00097C00250310360                                          00000000185000003608000000000000042030022A000000333010102                                                          
100E0006221566168189983   0000050000003600310082055003034001197031050691500303432930360   32930360   58147914706371492691411    KOPI KENANGAN EMPORIUM SIJakarta UtarIDN000000000000000000000000000100000000005105840   05105840    03            00360                      05100 000000000000   00000000000000000000   00000000D00000000000   00000000                                           201BD4849F8884F405100150E070C8008004E0001BE8B21A3533313707010103A02002010A0100000000004642E81B                          00237C00250310360                                          00000000050000003608000000000000042030022A000000333010102                                                          
100E0006221575204362975   0000050000003600310093215153954001007031050691615395432930360   32930360   58128041250371087558582    SINGLE FIN               Badung (Kab)IDN000000000000000000000000000100000000005105840   05105840    03            00360                      05100 000000000000   00000000000000000000   00000000D00000000000   00000000                                           57D816934E56F2A805100150E0F8C8088004E0003665A57A4D44384507010103A02000040A0100000000004AB92AA8                          00177C00250310360                                          00000000050000003608000000000000042030022A000000333010102                000200                                    
100E0006221682912838252   0000227810003600310131326538192912982031050692053819232930360   32930360   70117990917570412741806    FINN'S BEACH CLUB        Badung (Kab)IDN000000000000000000000000000100000000001050001   01050001    03            00360                      05100 000000000000   00000000000000000000   00000000D00000000000   00000000                                           35633BF4544318D105100250E070C8008004E00084CFE75B3232303007020103A02002010A010000000000CBD4B220                          00113C00250310360                                          00000000227810003608000000000000042030022A000000333010102                                                          
100E00062218024000040796280000254100003600310110832334711      031050691833471132930360   32930360   58128031050771669527497    MR. JHO                  Badung (Kab)IDN000000000000000000000000000100000000001009999   01009999    03            00360                      05100 000000000000   00000000000000000000   00000000D00000000000   00000000                                           CF4790393C3A800D05100150E070C8008004E0007D3C87993132333407020103A02002010A0100000000003691F82A                          005D7C00250310360                                          00000000254100003608000000000000002030022A000000333010101                                                          
100E00062218045100046380620000081196003600310050908579854      031050691257985432930360   32930360   54117900186370403996771    YOGYA CIUMBULEUIT        Bandung (KotIDN000000000000000000000000000100000000001009999   01009999    03            00360                      05100 000000000000   00000000000000000000   00000000D00000000000   00000000                                           3E58825583F9E89205100150E070C8008004E0005CDB4D013533333107020103A02002010A01000000000084E84F99                          000B7C00250310360                                          00000000081196003608000000000000002030022A000000333010101                                                          
100E00062218058000029743980000423720003600309195523974474      031050690297447432930360   32930360   58128119725170403164605    RED RUBY                 Badung (Kab)IDN000000000000000000000000000100000000001009999   01009999    03            00360                      05100 000000000000   00000000000000000000   00000000D00000000000   00000000                                           EECC06142A143F1C05100150E0F8C8080004E00054805B374D44343207020103A02000040A010000000000CBADB6D0                          000B7C00250310360                                          00000000423720003608000000000000002030022A000000333010101                003000                                    
100E00062220207080069349600000839300003600310113055362883      031050691836288332930360   32930360   70118089456970412741806    FINN'S BEACH CLUB        Badung (Kab)IDN000000000000000000000000000100000000001020000   01020000    03            00360                      05100 000000000000   00000000000000000000   00000000D00000000000   00000000                                           6943BAF34309E0CC05100150E070C80080048000AB6011C83531303207010103A02002010A0100000000005FCFF4DD                          00103C00250310360                                          00000000839300003608000000000000002030022A000000333010101                                                          
100E00062220216100095182470000102001003600310102419258373      031050691725837332930360   32930360   58148077609171527935407    HHB 630 LIVING PLAZA JABABekasi (Kab)IDN000000000000000000000000000100000000001020000   01020000    03            00360                      05100 000000000000   00000000000000000000   00000000D00000000000   00000000                                           56F516A5032A86DA05100150E070C80080048000557663E43534303307010103A02002010A01000000000004E62644                          002D7C00250310360                                          00000000102001003608000000000000002030022A000000333010101                                                          
100E00062220304050138969480000690000003600310124326477590      031050691947759032930360   32930360   70118094831871728340804    KAKATUA RESTO            Badung (Kab)IDN000000000000000000000000000100000000001020000   01020000    03            00360                      05100 000000000000   00000000000000000000   00000000D00000000000   00000000                                           E6FE83D26BF1BF4305100150E070C80080048000D93631463533323907010103A02002010A0100000000001123A9DA                          007E7C00250310360                                          00000000690000003608000000000000002030022A000000333010101                                                          
100E00062220316020067375630000204000003600310054744650115      031050691265011532930360   32930360   70117685430070419000358    VILLA DALUMAN            Badung (Kab)IDN000000000000000000000000000100000000001020000   01020000    03            00360                      05100 000000000000   00000000000000000000   00000000D00000000000   00000000                                           ED1BA6095823CA8205100150E070C80080048000296A04AF3532333907010103A0B002010A01000000000074F5D1F1                          00043C00250310360                                          00000000204000003608000000000000002030022A000000333010101                                                          
100E00062220316130010515950000154500003600310055341661115      031050691266111532930360   32930360   58127869947071523208505    THE GREEN WARUNG         Badung (Kab)IDN000000000000000000000000000100000000001020000   01020000    03            00360                      05100 000000000000   00000000000000000000   00000000D00000000000   00000000                                           6DFEE6FA3E4BE56305100150E070C80080048000E651BDCA3532363707010103A02002010A0100000000002BAD2E18                          00287C00250310360                                          00000000154500003608000000000000002030022A000000333010101                                                          
100E00062220316130010515950000001000003600310051009581792      031050691258179232930360   32930360   58128100957471524012440    MEXICAN WARUNG           Badung (Kab)IDN000000000000000000000000000100000000001020000   01020000    03            00360                      07200 000000000000   00000000000000000000   00000000D00000000000   00000000                                           F6C689D026F5C5A207200160E0F8C80000000000AB85C1C7        07010103A00000010A01000000000015030B41                          00277C00250310360                                          000000000010000036080            3F0000  A000000333010101                                                          
100E00062220317020062980100000385500003600310101645244424      031050691724442432930360   32930360   59127871713770404577961    GUARDIAN 6239 PIK AVENEU Jakarta UtarIDN000000000000000000000000000100000000001020000   01020000    03            00360                      05100 000000000000   00000000000000000000   00000000D00000000000   00000000                                           AA59D2CE67C0358005100150E070C800800480002F03F69E3132333407010103A02002010A0100000000007973B006                          000E7C00250310360                                          00000000385500003608000000000000002030022A000000333010101                                                          
100E00062220330020067750690000099110003600310110842334994      031050691833499432930360   32930360   70117458931970412724990    THE SAYAN HOUSE          Gianyar (KabIDN000000000000000000000000000100000000001020000   01020000    03            00360                      05100 000000000000   00000000000000000000   00000000D00000000000   00000000                                           3E87500D700DE01605100150E070C80080048000E0E163CD3238303207010103A02002010A0100000000005FD8608F                          00507C00250310360                                          00000000099110003608000000000000002030022A000000333010101                                                          
100E00062220330020067750690000063525003600310060257678758      031050691367875832930360   32930360   58127805765971132177122    BAKED                    Badung (Kab)IDN000000000000000000000000000100000000001020000   01020000    03            00360                      05100 000000000000   00000000000000000000   00000000D00000000000   00000000                                           56CE3516B48B963705100150E070C80080048000FD66BFE33239343507010103A02002010A010000000000DF054A27                          004F7C00250310360                                          00000000063525003608000000000000002030022A000000333010101                                                          
100E00062220330020067750690000150150003600310040927469660      031050691146966032930360   32930360   58127805765971132177122    BAKED                    Badung (Kab)IDN000000000000000000000000000100000000001020000   01020000    03            00360                      05100 000000000000   00000000000000000000   00000000D00000000000   00000000                                           ADC084621A14647505100150E070C80080048000F45F1E9A3239343507010103A02002010A010000000000ABE5DB8D                          004E7C00250310360                                          00000000150150003608000000000000002030022A000000333010101                                                          
100E00062220810010057292680001260820003600310124228475898      031050691947589832930360   32930360   70118029129670419015237    INTERCONTINENTAL BALI JIMBadung (Kab)IDN000000000000000000000000000100000000001020000   01020000    03            00360                      05100 000000000000   00000000000000000000   00000000D00000000000   00000000                                           55847008820745DD05100150E0F8C80880048000ED9C40934B44344807010103A02000040A01000000000089AB1CB2                          00547C00250310360                                          00000001260820003608000000000000002030022A000000333010101                000000                                    
100E0006222520754156509   0000205500003600310055532664630587622031050691266463032930360   32930360   58127695016671001962519    DE AROMA KITCHEN & HALL  Boyolali (KaIDN000000000000000000000000000100000000003010000   03010000    03            00360                      05100 000000000000   00000000000000000000   00000000D00000000000   00000000                                           F2807154BA1E9E7005100550E070C8008004E0006E3D7A113530383107010103A02002010A010000000000E12171C0                          00387C00250310360                                          00000000205500003608000000000000042030022A000000333010102                                                          
100E0006222530212625177   0001633500003600310041449479513576817031050691147951332930360   32930360   70117376871871054420445    TAMPLE LOUNGE            Badung (Kab)IDN000000000000000000000000000100000000003010000   03010000    03            00360                      05100 000000000000   00000000000000000000   00000000D00000000000   00000000                                           1E68863D9F8E6AB505100150E070C8008004E000FAF4A8E93232303407020103A02002010A0100000000003D5FD745                          000D7C00250310360                                          00000001633500003608000000000000042030022A000000333010102                                                          
100E00062226201100885272630000063000003600310044913543409000065031050691154340932930360   32930360   58147919068571167615230    KOPI KENANGAN FAKULTAS KETangerang (KIDN000000000000000000000000000100000000003010000   03010000    03            00360                      05100 000000000000   00000000000000000000   00000000D00000000000   00000000                                           4CF8E406BE6495B305100150E0F8C8080004E000346AA23F4B44384D07010103A02000040A0100000000001F19C095                          013C7C00250310360                                          00000000063000003608000000000000042030022A000000333010101                003000                                    
100E00062226201700178816780000487379003600309133834346142008550030950682034614232930360   32930360   79328020499270400817136    AFTERHOUR                Jakarta UtarIDN000000000000000000000000000100000000003010000   03010000    03            00360                      05100 000000000000   00000000000000000000   00000000D00000000000   00000000                                           67EBE9EA5922B1B305100150E0F8C8088004E000CC5F5FDA4B44344A07010103A02000040A01000000000086E8A50B                          00287C00250309360                                          00000000487379003608000000000000042030022A000000333010101                000000                                    
100E00062226231300071229510000173000003600310110027321905000309031050691832190532930360   32930360   58147933610770403857593    MARUGAME  RESINDA PARK MAKarawang (KaIDN000000000000000000000000000100000000003010000   03010000    03            00360                      05100 000000000000   00000000000000000000   00000000D00000000000   00000000                                           8AA5569A0653AB7505100150E070C8008004E000C445816C3239373607010103A02002010A01000000000032D6BE3F                          004D7C00250310360                                          00000000173000003608000000000000042030022A000000333010101                                                          
100E0006225258897349221   0013707000003600310064648765325002001031050691376532532930360   32930360   56518125726071757589285    BAZAR POLO CENTRAL PARK  Jakarta BaraIDN000000000000000000000000000100000000005105840   05105840    03            00360                      05100 000000000000   00000000000000000000   00000000D00000000000   00000000                                           27F379A3996017EA05100350E070C8008004E000DCABDDE63530343207010103A02002010A010000000000C953A416                          00057C00250310360                                          00000013707000003608000000000000042030022A000000333010102                                                          
100E0006225551701199208   0000980100003600310095458200499825162031050691620049932930360   32930360   70117890145171000499767    FRONT OFFICE 5           Jakarta PusaIDN000000000000000000000000000100000000003060000   03060000    03            00360                      05100 000000000000   00000000000000000000   00000000D00000000000   00000000                                           B98E0CD630C10F6405100150E070C8008004E000828766143534313107010103A02002010A0100000000008614BC8E                          007D7C00250310360                                          00000000980100003608000000000000042030022A000000333010102                                                          
100E0006225561646327509   0013649000003600310123750467633391453031050691946763332930360   32930360   59468032146970400237887    FOCUS NUSANTARA          Jakarta PusaIDN000000000000000000000000000100000000003060000   03060000    03            00360                      05100 000000000000   00000000000000000000   00000000D00000000000   00000000                                           A47A50776474739605100250E070C8008004E00084B6E50A3534303407010103A02002010A0100000000006F3C8419                          00587C00250310360                                          00000013649000003608000000000000042030022A000000333010102                                                          
100E0006225561646327509   0006273000003600310123617464919391175031050691946491932930360   32930360   59468032146970400237887    FOCUS NUSANTARA          Jakarta PusaIDN000000000000000000000000000100000000003060000   03060000    03            00360                      05100 000000000000   00000000000000000000   00000000D00000000000   00000000                                           AF779EFAFA4F390C05100250E070C8008004E0009A1D5FBD3534303407010103A02002010A0100000000000D067196                          00577C00250310360                                          00000006273000003608000000000000042030022A000000333010102                                                          
100E0006225750455156899   0001856200003600310115558397918585945031050691839791832930360   32930360   58128014469570415905607    RM Ikan Goreng  Cianjur  Banjarmasin IDN000000000000000000000000000100000000003080000   03080000    03            00360                      05100 000000000000   00000000000000000000   00000000D00000000000   00000000                                           82D81831FD34A6EF05100150E0F8C8088004E0008CFE95EA4D44343107010103A0A800040A0100000000005FF4C2E0                          00237C00250310360                                          00000001856200003608000000000000042030022A000000333010102                000000                                    
100E0006225757530114751   0000720000003600309143743558525627751030950682155852532930360   32930360   56517919295070405015521    PLAZA BALI DUTY & TAX FRETangerang (KIDN000000000000000000000000000100000000003080000   03080000    03            00360                      05100 000000000000   00000000000000000000   00000000D00000000000   00000000                                           A959923142C4484C05100250E0F8C8088004E0000E2289844B44384C07010103A0A800040A010000000000EED98DB9                          00107C00250309360                                          00000000720000003608000000000000042030022A000000333010102                008C00                                    
100E0006225767881019236   0001270000003600310014700226741775874031050690822674132930360   32930360   70117978521671562405143    MANHATTAN HOTEL          Jakarta SelaIDN000000000000000000000000000100000000003080000   03080000    03            00360                      05100 000000000000   00000000000000000000   00000000D00000000000   00000000                                           E605EC85C5E9EA8305100150E0F8C8080004E000DF441FDF4D44384507010103A02000040A010000000000291724CB                          00057C00250310360                                          00000001270000003608000000000000042030022A000000333010102                003000                                    
100E0006225768725764789   0020000000003600310043845523983182449031050691152398332930360   32930360   48127977728971056546971    MOMOX                    Palembang (KIDN000000000000000000000000000100000000003080000   03080000    03            00360                      05100 000000000000   00000000000000000000   00000000D00000000000   00000000                                           1D81C50F344657FF05100250E070C8008004E000DBB5E73F3533333507010103A0A802010A010000000000C51D26EC                          002F7C00250310360                                          00000020000000003608000000000000042030022A000000333010102                                                          
100E0006225768752355113   0000070000003600310011221180734933586031050690818073432930360   32930360   70117885767471049164040    THE CAMPLUNG MAS HOTEL   Badung (Kab)IDN000000000000000000000000000100000000003080000   03080000    03            00360                      05100 000000000000   00000000000000000000   00000000D00000000000   00000000                                           70FBF65E1EF7DDF605100350E070C8008004E000BFE62C593232303107010103A02002010A0100000000004C082CF3                          00167C00250310360                                          00000000070000003608000000000000042030022A000000333010102                                                          
100E0006225768762968210   0000064000003600310104257292636222564031050691729263632930360   32930360   58147926151070404649773    KFC PARAGON  SENGIGI     Lombok BaratIDN000000000000000000000000000100000000003080000   03080000    03            00360                      05100 000000000000   00000000000000000000   00000000D00000000000   00000000                                           713BFC20E84B7E7305100250E0F8C8080804E00015D278924B44384C07010103A0B800040A010000000000ABDD87E7                          000F7C00250310360                                          00000000064000003608000000000000042030022A000000333010102                003000                                    
100E0006225768846493029   0000350000003600310022506284726240579031050690928472632930360   32930360   48127487161071159970233    DATA CELLULAR            Tangerang (KIDN000000000000000000000000000100000000003080000   03080000    03            00360                      05100 000000000000   00000000000000000000   00000000D00000000000   00000000                                           5ADF4447EA143E5405100150E070C8008004E000D43C3E1A3239373507010103A02002010A010000000000F34B3268                          005B7C00250310360                                          00000000350000003608000000000000042030022A000000333010102                                                          
100E0006225780602799028   0000170940003600310140129660001331285031050692166000132930360   32930360   58148046963571641998198    EBIGA CIPUTRA WORLD      Jakarta SelaIDN000000000000000000000000000100000000003080000   03080000    03            00360                      05100 000000000000   00000000000000000000   00000000D00000000000   00000000                                           A49F8ECD9B40626205100250E070C8008004E000EB2A435C3239343707010103A02002010A010000000000FA643FAB                          00617C00250310360                                          00000000170940003608000000000000042030022A000000333010102                                                          
100E0006225780602879127   0000235000003600310120635415634480557031050691941563432930360   32930360   58128017813871628417313    MADE'S WARUNG INTER      Badung (Kab)IDN000000000000000000000000000100000000003080000   03080000    03            00360                      05100 000000000000   00000000000000000000   00000000D00000000000   00000000                                           D8E3BCD025F306F405100250E0F8C8088004E000D352EBCD4D44384407010103A02000040A010000000000E5AF245A                          002A7C00250310360                                          00000000235000003608000000000000042030022A000000333010102                000100                                    
100E0006225781809229728   0000635470003600310105635315575851493031050691731557532930360   32930360   70117458931970412724990    THE SAYAN HOUSE          Gianyar (KabIDN000000000000000000000000000100000000003080000   03080000    03            00360                      05100 000000000000   00000000000000000000   00000000D00000000000   00000000                                           E4A3DD53E35456AF05100150E070C8008004E00091C738103238303207010103A02002010A0100000000002B52D8A6                          001F7C00250310360                                          00000000635470003608000000000000042030022A000000333010102                                                          
100E0006225781891353691   0000420000003600310040854468625754046031050691146862532930360   32930360   70117733482870424284409    SOFITEL BALI NUSA DUA    Badung (Kab)IDN000000000000000000000000000100000000003080000   03080000    03            00360                      05100 000000000000   00000000000000000000   00000000D00000000000   00000000                                           192E0ACF58AD86CC05100150E070C8008004E00096EDFD953532343207010103A0A002010A0100000000006BD6A529                          000C7C00250310360                                          00000000420000003608000000000000042030022A000000333010102                                                          
100E0006225781891353691   0002000000003600310040808467216485339031050691146721632930360   32930360   70117733482870424284409    SOFITEL BALI NUSA DUA    Badung (Kab)IDN000000000000000000000000000100000000003080000   03080000    03            00360                      05100 000000000000   00000000000000000000   00000000D00000000000   00000000                                           E9C56CAB8C5B22E005100150E070C8008004E000AA5C8D533532343207010103A02002010A0100000000006637E73E                          000B7C00250310360                                          00000002000000003608000000000000042030022A000000333010102                                                          
100E0006225781893123902   0000113000003600310132701566003626186031050692056600332930360   32930360   54118041874271679902895    COCO GOURMET BEACHWALK   Badung (Kab)IDN000000000000000000000000000100000000003080000   03080000    03            00360                      05100 000000000000   00000000000000000000   00000000D00000000000   00000000                                           E4237E917021CBF405100150E070C8008004E0007256FB233239343407010103A0A802010A01000000000099925E48                          001C7C00250310360                                          00000000113000003608000000000000042030022A000000333010102                                                          
100E0006225781897306180   0000160000003600310032826392234655209031050691039223432930360   32930360   56217992781771634381419    NATAOKA UBUD             Badung (Kab)IDN000000000000000000000000000100000000003080000   03080000    03            00360                      05100 000000000000   00000000000000000000   00000000D00000000000   00000000                                           878B3E490400974A05100150E070C8008004E00097969F5A3530323807010103A02002010A01000000000091538026                          000B7C00250310360                                          00000000160000003608000000000000042030022A000000333010102                                                          
100E0006225788880199977   0010144000003600310051640593658633467031050691259365832930360   32930360   79927912059670400376972    PONDOK INDAH GOLF COURSE Jakarta SelaIDN000000000000000000000000000100000000003080000   03080000    03            00360                      05100 000000000000   00000000000000000000   00000000D00000000000   00000000                                           334E22CA0F0CA2D305100250E0F8C8008004E000B58100C84B44384C07010103A0A802010A010000000000B58718A9                          00B77C00250310360                                          00000010144000003608000000000000042030022A000000333010102                000000                                    
100E0006225970043839273   0000111000003600310065331780177      031050691378017732930360   32930360   58128017811171627994207    LE PETIT JEMMA 1         Badung (Kab)IDN000000000000000000000000000100000000001020000   01020000    03            00360                      05100 000000000000   00000000000000000000   00000000D00000000000   00000000                                           7DED3921B9139CD505100150E0F8C80880048000C437BD3B4D44384407010103A02000040A010000000000B33658C4                          00143C00250310360                                          00000000111000003608000000000000002030022A000000333010102                000200                                    
100E0006226080240105236   0000869000003600310043134510506      031050691151050632930360   32930360   56517978411271165907880    SR POLO A12              Badung (Kab)IDN000000000000000000000000000100000000003080000   03080000    03            00360                      05100 000000000000   00000000000000000000   00000000D00000000000   00000000                                           C4ACDC281FF1CA4D05100050E0F8C8080004E0009C2CC06B4B44383907010103A02000040A01000000000092E9D6EB                          00AC7C00250310360                                          00000000869000003608000000000000042030022A000000333010101                003000                                    
100E0006226560155889403   0000159500003600310111554344673801467031050691834467332930360   32930360   58148097627371599081884    SUNSET POINT             Badung (Kab)IDN000000000000000000000000000100000000003010000   03010000    03            00360                      05100 000000000000   00000000000000000000   00000000D00000000000   00000000                                           11984FFCAB21D5DD05100450E0F8C8088004E000AC8CDF9F4D44343207010103A02000040A0100000000009830A3A7                          001B7C00250310360                                          00000000159500003608000000000000042030022A000000333010102                000200                                    
100E0006226560811885977   0000142900003600310084156048308609936031050691504830832930360   32930360   59127913623270403838687    WATSONS PERSONAL CARE STOJakarta UtarIDN000000000000000000000000000100000000003010000   03010000    03            00360                      05100 000000000000   00000000000000000000   00000000D00000000000   00000000                                           D378D4983D4EC1AC05100350E0F8C8088004E000F74D6F294B44385007010103A02000040A010000000000833E9A83                          000F7C00250310360                                          00000000142900003608000000000000042030022A000000333010102                000000                                    
100E0006226623107108452   0000957110003600310060542684044      031050691368404432930360   32930360   58127912274871118632522    ACALA BISTRO             Badung (Kab)IDN000000000000000000000000000100000000003030000   03030000    03            00360                      05100 000000000000   00000000000000000000   00000000D00000000000   00000000                                           B627EF2E7CD515CA05100150E0F8C8080004E0003B61650B4D44383507280103A02000040A0100000000007E111936                          00C87C00250310360                                          00000000957110003608000000000000002030022A000000333010101                003000                                    
100E0006226880009000282   0000410141003600310132120553907830324031050692055390732930360   32930360   58127793573071453505050    IMPERIAL KITCHEN & DIMSUMJakarta PusaIDN000000000000000000000000000100000000063020000   63020000    03            00360                      05100 000000000000   00000000000000000000   00000000D00000000000   00000000                                           BDC228FACF1A037B05100350E070C8008004E000B7AAAAE43232303107010103A02002010A010000000000BFB09521                          00807C00250310360                                          00000000410141003608000000000000042030022A000000333010102                                                          
100E0006226880333819050   0000260000003600309123620199874654262030950681919987432930360   32930360   58128030857370405444606    A2                       Batam (Kota)IDN000000000000000000000000000100000000063020000   63020000    03            00360                      05100 000000000000   00000000000000000000   00000000D00000000000   00000000                                           FC4F3CAC0B858A2C05100250E0F8C8080004E000125615214D44343107020103A02000040A0100000000009EA08AEC                          002D7C00250309360                                          00000000260000003608000000000000042030022A000000333010102                003000                                    
100E0006226880727009698   0000296500003600310110110323231915856031050691832323132930360   32930360   54997978297170400620635    BORMA TOSERBA LEMBANG    Bandung BaraIDN000000000000000000000000000100000000063020000   63020000    03            00360                      05100 000000000000   00000000000000000000   00000000D00000000000   00000000                                           6C5B31C75F465C6905100250E0F8C8088004E000306D35A44D44384407020103A02000040A01000000000027E32365                          00027C00250310360                                          00000000296500003608000000000000042030022A000000333010102                000000                                    
100E0006226880736313719   0003203475003600310073545891490208166031050691489149032930360   32930360   70117913147570415462144    LE MERIDIEN FRONT OFFICE Jakarta PusaIDN000000000000000000000000000100000000063020000   63020000    03            00360                      05100 000000000000   00000000000000000000   00000000D00000000000   00000000                                           57792CB49205711405100250E070C8008004E0001732C4563232303407010103A02002010A0100000000007E534D61                          00047C00250310360                                          00000003203475003608000000000000042030022A000000333010102                                                          
100E0006226880752309203   0000171600003600310061616704664710342031050691370466432930360   32930360   58128020266471660261613    MUHAMMAD RESTO           Semarang (KoIDN000000000000000000000000000100000000063020000   63020000    03            00360                      05100 000000000000   00000000000000000000   00000000D00000000000   00000000                                           549768F69467C2C105100250E070C8008004E0000B5180CF3232303407010103A02002010A01000000000049760A9F                          00247C00250310360                                          00000000171600003608000000000000042030022A000000333010102                                                          
100C00062270020046502199860000500000003600309060245285630      030950681328563032930360   32930360   70118097089471606486587    HARPER PREMIER NAGOYA    Batam (Kota)IDN000000000000000000000000000100000000001050001   01050001    03            00360                      02100 000000000000   00000000000000000000   00000000D00000000000   00000000                                           
100C00062270020046502199860000500000003600310112847360124      031050691836012432930360   32930360   70118097089371606486587    HARPER PREMIER NAGOYA    Batam (Kota)IDN000000000000000000000000000100000000001050001   01050001    03            00360                      02100 000000000000   00000000000000000000   00000000D00000000000   00000000                                           
100E0006227080224227708   0000210000003600310133357581661220340031050692058166132930360   32930360   42157821066671051549868    TBS INTER                Badung (Kab)IDN000000000000000000000000000100000000001050001   01050001    03            00360                      05100 000000000000   00000000000000000000   00000000D00000000000   00000000                                           2FD2AD44DDB5093905100150E070C8008004E0006BF753C03030363407020103A02002010A0100000000007E93AABC                          00C77C00250310360                                          00000000210000003608000000000000042030022A000000333010102                                                          
100E0006227080224227708   0000735000003600310083201027048359714031050691502704832930360   32930360   56617817885070404313250    LAVANILLA                Gianyar (KabIDN000000000000000000000000000100000000001050001   01050001    03            00360                      05100 000000000000   00000000000000000000   00000000D00000000000   00000000                                           0B36B45B12CC61D805100150E070C8008004E0003673B0953030363507020103A02002010A010000000000FFE2B7D4                          00BF7C00250310360                                          00000000735000003608000000000000042030022A000000333010102                                                          
100E0006227080224227708   0002671500003600310124503480487739192031050691948048732930360   32930360   56517978412471168213615    SR POLO JW STORE         Badung (Kab)IDN000000000000000000000000000100000000001050001   01050001    03            00360                      05100 000000000000   00000000000000000000   00000000D00000000000   00000000                                           CD2C8C7CCC289A0C05100150E0F8C8088004E0000C65C0AE4D44384507020103A02000040A010000000000CCAFBD82                          00C57C00250310360                                          00000002671500003608000000000000042030022A000000333010102                000000                                    
100E0006227080224227708   0000824000003600310094758185770379359031050691618577032930360   32930360   56317904412070406818969    RENFUA ECO BAG COLLECTIONGianyar (KabIDN000000000000000000000000000100000000001050001   01050001    03            00360                      05200 000000000000   00000000000000000000   00000000D00000000000   00000000                                           93817A865BFBD53005200150E070C8008008E000EA0CE6FE3532333907020103A02002010A01000000000053DD00E5                          00C27C00250310360                                          0000000082400000360800000000000001E030022A000000333010102                                                          
100E0006227080224227708   0000210000003600310132234556459427673031050692055645932930360   32930360   42157821066671051549868    TBS INTER                Badung (Kab)IDN000000000000000000000000000100000000001050001   01050001    03            00360                      05100 000000000000   00000000000000000000   00000000D00000000000   00000000                                           3E915EF2238DD37D05100150E070C8008004E000352B33F13030363407020103A02002010A01000000000082C03F1D                          00C67C00250310360                                          00000000210000003608000000000000042030022A000000333010102                                                          
100E0006227653306084724   0000089000003600310065636788113047080031050691378811332930360   32930360   58147709935671133178302    KFC BANDARA SOETA TERMINATangerang (KIDN000000000000000000000000000100000000001040000   01040000    03            00360                      05100 000000000000   00000000000000000000   00000000D00000000000   00000000                                           EA9F223F7228E24305100050E070C8008004E000BCB0E76935323730074F0103A02002010A010000000000FCE97CBB                          00277C00250310360                                          00000000089000003608000000000000042030022A000000333010103                                                          
100E0006228100142339879   0000750000003600309150448711581991033031050682271158132930360   32930360   56518094917670405015521    PLAZA BALI DUTY & TAX FRETangerang (KIDN000000000000000000000000000100000000061000000   61000000    03            00360                      05100 000000000000   00000000000000000000   00000000D00000000000   00000000                                           5F62CC5052FAA1B605100050E070C8008004E000D04704243030363907020103A02002010A010000000000D8E3679E                          00317C00250309360                                          00000000750000003608000000000000042030022A000000333010102                                                          
100E00062284800190527314780000115500003600310053101619772      031050691261977232930360   32930360   58127994897871636431996    SAVOR PERERENAN          Badung (Kab)IDN000000000000000000000000000100000000001030000   01030000    03            00360                      05100 000000000000   00000000000000000000   00000000D00000000000   00000000                                           6CA9421EEF274B5305100050E070C8008004E00074A67E333533393907080103A02002010A01000000000090F52760                          00F57C00250310360                                          00000000115500003608000000000000002030022A000000333010101                                                          
100E00062284805571021349790000487410003600310051144584713      031050691258471332930360   32930360   58128047432871685233798    RAMEN BEAST              Karawang (KaIDN000000000000000000000000000100000000001030000   01030000    03            00360                      05100 000000000000   00000000000000000000   00000000D00000000000   00000000                                           628814648161812805100050E070C8008004E0009713B3433239373807080103A02002010A01000000000015450811                          003F7C00250310360                                          00000000487410003608000000000000042030022A000000333010101                                                          
100E0006229015208075119   0000066000003600310112436355172714685031050691835517232930360   32930360   58128021469571549292972    LANZHOU LAMIAN           Jakarta BaraIDN000000000000000000000000000100000000003090010   03090010    03            00360                      05100 000000000000   00000000000000000000   00000000D00000000000   00000000                                           77667A5EE12B4C5B05100050E0F8C8080004E000B7C044894D44343107090103A02000040A010000000000EAD5CFBA                          004F7C00250310360                                          00000000066000003608000000000000042030022A000000333010102                003000                                    
